:020000020000FC
:1000000009C018951895189518951895189518956C
:10001000189518950FE90DBF07E107BB000000E038
:1000200008BB00002DD11ED12BD1C49A9FEF03D164
:100030009FEF01D19FEFFFD015D142D190E0FBD0CF
:1000400090E0F9D090E0F7D00DD1C1D00EF402C00D
:100050000FD1B3C04CECD9D021D144E4D6D01ED1BD
:10006000DAD018D1E8F7B3D00EF402C001D1A5C0A0
:100070004CECCBD013D14EEBC8D010D1A0E6B0E001
:1000800009E0D3D00BD14D930A95D9F70CE8202E77
:10009000A0E6B0E0CD9108E0002EDD9108E0102E42
:1000A000D695C79508F4C2251A94D1F70A94A9F7F2
:1000B000C03009F408C090EEBED090ECBCD090EEF9
:1000C000BAD0D0D07AC0A0E6B0E0CD91DC91A4E661
:1000D000B0E00C910F3781F07AD04CEC96D04EE422
:1000E00094D040E092D091D04FE78FD070D04CECBC
:1000F0008CD048E48AD0E4D0FC2E0FE0F022C07F00
:10010000DF70CD2BC2950C2F007831F4D0E00F2D8D
:10011000083068F0C3950BC0DFEF0F2D083028F0D2
:10012000C095C03021F4D0E002C0C095C395CF93F4
:1001300060E070E080E0C43618F0C4566395FBCFF1
:10014000CA3018F0CA507395FBCFC13018F0C150B7
:100150008395FBCFCF91EAEDF2E0082FE00F00E0AE
:10016000F01F8491EAEDF2E0072FE00F00E0F01FAE
:100170007491EAEDF2E0062FE00F00E0F01F6491C9
:10018000CA3050F4D03021F4782F8AE560E00EC0F8
:10019000782F8AE560E40AC0C43640F4D03021F4F8
:1001A000672F782F8AE502C060E400C0962F43D005
:1001B000972F41D0982F3FD055D075D090E03BD0AD
:1001C00090E039D090E037D04DD0C498FFCFBB98A5
:1001D000E894B39B0895C398BB9A52D051D050D0A5
:1001E0004FD04ED0BB984CD0E894B39B689448D085
:1001F00047D046D00895C398BB9A20F44FD0BB98FF
:100200003FD008953DD0BB98089558E04795F3DF5F
:100210005A95E1F70895C398BB9A40D0BB983AD05D
:100220008894B39908942CD0089558E0F4DF47954A
:100230005A95E1F70895C198C298C09858E0990F6F
:1002400010F4C09A02C0C0980000C2980054005E2A
:10025000F0F3C29A0054005EF0F35A9581F7C29809
:10026000C0980895C19A0054005EF0F3C1980895B3
:1002700090E4E1DF90E4DFDF90E4DDDFF3DF089579
:100280001BE02CE12A95F1F71A95D9F711E01A95A0
:10029000F1F7089510E21A95F1F7089513E01A9511
:1002A000F1F70000089519E928EF3CEF3A95F1F7CE
:1002B0002A95D9F71A95C1F71FE01A95F1F7089515
:1002C00018E026EC39EC3A95F1F72A95D9F71A950A
:1002D000C1F718E11A95F1F70895BE06EA6E567C4B
:0402E000FC0EFE7E94
:00000001FF
